0000000001109325874000193000000000000COMPANHIA BRASILEIRA DE BEBIDAS     PREMIUM                                                                                                           000030005170262810101207023092013230920130838
0000000012010620100326109325874000193000000000000COMPANHIA BRASILEIRA DE BEBIDAS     PREMIUM                                                                                                           ROD. CE O40, S/N KM 43,7            CENTRO PINDORETAMA-CE               CEP 62.860-000              
0000000022010620100338109325874000193000000000000COMPANHIA BRASILEIRA DE BEBIDAS     PREMIUM                                                                                                           ROD. CE O40, S/N KM 43,7            CENTRO PINDORETAMA-CE               CEP 62.860-000              
0000000034010620100338010820111731
0000000044010820111752010120100000
0000000052010120100007109325874000193000000000000COMPANHIA BRASILEIRA DE BEBIDAS     PREMIUM                                                                                                           ROD. CE O40, S/N KM 43,7            CENTRO PINDORETAMA-CE               CEP 62.860-000              
0000000064010120100007010820111759
0000000075010820111822I020060760545NATALIA MARIA MENDES DA SILVA                       
0000000085010820111822A020060760545NATALIA MARIA MENDES DA SILVA                       
0000000095030820111556I010716149149FRANCISCO DE SOUZA FILHO                            
0000000105030820111556A010716149149FRANCISCO DE SOUZA FILHO                            
0000000115030820111556I010816456345FRANCISCO FIRMINO DA SILVA                          
0000000125030820111556A010816456345FRANCISCO FIRMINO DA SILVA                          
0000000135030820111556I012048762958JOSE IRAN PEREIRA SOUSA                             
0000000145030820111556A012048762958JOSE IRAN PEREIRA SOUSA                             
0000000155030820111556I012194959213WILLAMS MAIA MELO                                   
0000000165030820111556A012194959213WILLAMS MAIA MELO                                   
0000000175030820111556I012230353405CLOVIS ANTONIO LEMOS DA SILVA                       
0000000185030820111559A010716149149FRANCISCO DE SOUZA FILHO                            
0000000195030820111559A010716149149FRANCISCO DE SOUZA FILHO                            
0000000205030820111559A010816456345FRANCISCO FIRMINO DA SILVA                          
0000000215030820111559A010816456345FRANCISCO FIRMINO DA SILVA                          
0000000225030820111559A012048762958JOSE IRAN PEREIRA SOUSA                             
0000000235030820111559A012048762958JOSE IRAN PEREIRA SOUSA                             
0000000245030820111559A012194959213WILLAMS MAIA MELO                                   
0000000255030820111559A012194959213WILLAMS MAIA MELO                                   
0000000265030820111559A012230353405CLOVIS ANTONIO LEMOS DA SILVA                       
0000000275030820111559A012230353405CLOVIS ANTONIO LEMOS DA SILVA                       
0000000285030820111559I012419181540SALVIANO MORAES NOGUEIRA                            
0000000295030820111559A012419181540SALVIANO MORAES NOGUEIRA                            
0000000305030820111559I012427760716FRANCISCO JOSE MACIEL                               
0000000315030820111600A012427760716FRANCISCO JOSE MACIEL                               
0000000325030820111600I012497773728LUIZ FERNANDO PEREIRA DA SILVA                      
0000000335030820111600A012497773728LUIZ FERNANDO PEREIRA DA SILVA                      
0000000345030820111600I012504537435PEDRO CIPRIANO JUNIOR                               
0000000355030820111600A012504537435PEDRO CIPRIANO JUNIOR                               
0000000365030820111600I012530583554FRANCISCO JOSE LOPES DOS SANTOS                     
0000000375030820111600A012530583554FRANCISCO JOSE LOPES DOS SANTOS                     
0000000385030820111600I012531248899FRANCISCO DAS CHAGAS RODRIGUES                      
0000000395030820111600A012531248899FRANCISCO DAS CHAGAS RODRIGUES                      
0000000405030820111600I012548615946CLAUDIO MARCOS ALVES DA SILVA                       
0000000415030820111600A012548615946CLAUDIO MARCOS ALVES DA SILVA                       
0000000425030820111600I012590808196ERMINIO JARDIM DE LIMA                              
0000000435030820111600A012590808196ERMINIO JARDIM DE LIMA                              
0000000445030820111600I012645821199CARLOS ANDRE DA SILVA                               
0000000455030820111600A012645821199CARLOS ANDRE DA SILVA                               
0000000465030820111600I012656745197NAGELA CRISTINA COSTA ARAUJO                        
0000000475030820111600A012656745197NAGELA CRISTINA COSTA ARAUJO                        
0000000485030820111600I012717770196GLEISON PIO SOARES                                  
0000000495030820111600A012717770196GLEISON PIO SOARES                                  
0000000505030820111600I012952884198REGILANE PEREIRA ALMEIDA                            
0000000515030820111600A012952884198REGILANE PEREIRA ALMEIDA                            
0000000525030820111600I012991024196OSMILDO DA SILVA MONTEIRO                           
0000000535030820111600A012991024196OSMILDO DA SILVA MONTEIRO                           
0000000545030820111600I013004430192ANTONIO CARLOS SILVA ALMEIDA                        
0000000555030820111600A013004430192ANTONIO CARLOS SILVA ALMEIDA                        
0000000565030820111600I013010380193LUIS CORREIA DE CASTRO                              
0000000575030820111600A013010380193LUIS CORREIA DE CASTRO                              
0000000585030820111600I013216779199JENILSON GOMES PEREIRA                              
0000000595030820111600A013216779199JENILSON GOMES PEREIRA                              
0000000605030820111600I013268280195RAIMUNDO NONATO DA SILVA                            
0000000615030820111600A013268280195RAIMUNDO NONATO DA SILVA                            
0000000625030820111600I013288406194LAELSON PESSOA DA COSTA                             
0000000635030820111600A013288406194LAELSON PESSOA DA COSTA                             
0000000645030820111600I013315490197FRANCISCO GILBERTO DA SILVA COSTA                   
0000000655030820111600A013315490197FRANCISCO GILBERTO DA SILVA COSTA                   
0000000665030820111600I013353397190TIAGO GALDINO DA SILVA                              
0000000675030820111600A013353397190TIAGO GALDINO DA SILVA                              
0000000685030820111600I013413989196JOAO CARLOS RIBEIRO SANTOS                          
0000000695030820111600A013413989196JOAO CARLOS RIBEIRO SANTOS                          
0000000705030820111600I013433937191JARLEY ALMEIDA SILVA                                
0000000715030820111600A013433937191JARLEY ALMEIDA SILVA                                
0000000725030820111600I013462637192FRANCISCO GERSON R DA ROCHA                         
0000000735030820111600A013462637192FRANCISCO GERSON R DA ROCHA                         
0000000745030820111600I013480732193JAMES GARCIA CARNEIRO DE FREITAS                    
0000000755030820111600A013480732193JAMES GARCIA CARNEIRO DE FREITAS                    
0000000765030820111600I013491568195JOAO BATISTA PEREIRA                                
0000000775030820111600A013491568195JOAO BATISTA PEREIRA                                
0000000785030820111600I013577429193JOSE ANTONIO DA SILVA NASCIMENTO                    
0000000795030820111600A013577429193JOSE ANTONIO DA SILVA NASCIMENTO                    
0000000805030820111600I013678336190JOABE SANTOS OLIVEIRA                               
0000000815030820111600A013678336190JOABE SANTOS OLIVEIRA                               
0000000825030820111600I013683257198FRANCISCO DE ASSIS DA SILVA PINHEIRO                
0000000835030820111600A013683257198FRANCISCO DE ASSIS DA SILVA PINHEIRO                
0000000845030820111600I013764659199CESAR ADRIANO DOS SANTOS                            
0000000855030820111600A013764659199CESAR ADRIANO DOS SANTOS                            
0000000865030820111600I013899079190PAULO MARTINS DE LIMA                               
0000000875030820111600A013899079190PAULO MARTINS DE LIMA                               
0000000885030820111600I013910174190ADELSON CAVALCANTE DOS SANTOS                       
0000000895030820111600A013910174190ADELSON CAVALCANTE DOS SANTOS                       
0000000905030820111600I013983816192JOSE JOCELINO SILVA SANTOS                          
0000000915030820111600A013983816192JOSE JOCELINO SILVA SANTOS                          
0000000925030820111600I016145750082BRUNO LIMA GOAINA                                   
0000000935030820111600A016145750082BRUNO LIMA GOAINA                                   
0000000945030820111600I016447134716LUIS PAULO DA SILVA MARTINS                         
0000000955030820111600A016447134716LUIS PAULO DA SILVA MARTINS                         
0000000965030820111600I017040389418JURACY JERONIMO DE ASSIS                            
0000000975030820111600A017040389418JURACY JERONIMO DE ASSIS                            
0000000985030820111600A020060760545NATALIA MARIA MENDES DA SILVA                       
0000000995030820111600A020060760545NATALIA MARIA MENDES DA SILVA                       
0000001005030820111600I020087660274TIAGO RAFAEL MARCOS DO VALE LIMA                    
0000001015030820111600A020087660274TIAGO RAFAEL MARCOS DO VALE LIMA                    
0000001025030820111600I020912706486ANDERSON LIMA MONTEIRO                              
0000001035030820111600A020912706486ANDERSON LIMA MONTEIRO                              
0000001045030820111600I020925069811LEANDRO SILVA COSTA                                 
0000001055030820111600A020925069811LEANDRO SILVA COSTA                                 
0000001065030820111600I020930157162JOAO MARCOS ALVES SILVA                             
0000001075030820111600A020930157162JOAO MARCOS ALVES SILVA                             
0000001085030820111632A010716149149FRANCISCO DE SOUZA FILHO                            
0000001095030820111632A010716149149FRANCISCO DE SOUZA FILHO                            
0000001105030820111632A010816456345FRANCISCO FIRMINO DA SILVA                          
0000001115030820111632A010816456345FRANCISCO FIRMINO DA SILVA                          
0000001125030820111632A012048762958JOSE IRAN PEREIRA SOUSA                             
0000001135030820111632A012048762958JOSE IRAN PEREIRA SOUSA                             
0000001145030820111632A012194959213WILLAMS MAIA MELO                                   
0000001155030820111632A012194959213WILLAMS MAIA MELO                                   
0000001165030820111632A012230353405CLOVIS ANTONIO LEMOS DA SILVA                       
0000001175030820111632A012230353405CLOVIS ANTONIO LEMOS DA SILVA                       
0000001185030820111632I012321230438MARCOS ANTONIO HARTER MOURA                         
0000001195030820111632A012321230438MARCOS ANTONIO HARTER MOURA                         
0000001205030820111632A012419181540SALVIANO MORAES NOGUEIRA                            
0000001215030820111632A012419181540SALVIANO MORAES NOGUEIRA                            
0000001225030820111632A012427760716FRANCISCO JOSE MACIEL                               
0000001235030820111632A012427760716FRANCISCO JOSE MACIEL                               
0000001245030820111632I012437126750RICARDO CESAR DO NASCIMENTO                         
0000001255030820111632A012437126750RICARDO CESAR DO NASCIMENTO                         
0000001265030820111632A012497773728LUIZ FERNANDO PEREIRA DA SILVA                      
0000001275030820111632A012497773728LUIZ FERNANDO PEREIRA DA SILVA                      
0000001285030820111632A012504537435PEDRO CIPRIANO JUNIOR                               
0000001295030820111632A012504537435PEDRO CIPRIANO JUNIOR                               
0000001305030820111632A012530583554FRANCISCO JOSE LOPES DOS SANTOS                     
0000001315030820111632A012530583554FRANCISCO JOSE LOPES DOS SANTOS                     
0000001325030820111632A012531248899FRANCISCO DAS CHAGAS RODRIGUES                      
0000001335030820111632A012531248899FRANCISCO DAS CHAGAS RODRIGUES                      
0000001345030820111632A012548615946CLAUDIO MARCOS ALVES DA SILVA                       
0000001355030820111632A012548615946CLAUDIO MARCOS ALVES DA SILVA                       
0000001365030820111632A012590808196ERMINIO JARDIM DE LIMA                              
0000001375030820111632A012590808196ERMINIO JARDIM DE LIMA                              
0000001385030820111632A012645821199CARLOS ANDRE DA SILVA                               
0000001395030820111632A012645821199CARLOS ANDRE DA SILVA                               
0000001405030820111632A012656745197NAGELA CRISTINA COSTA ARAUJO                        
0000001415030820111632A012656745197NAGELA CRISTINA COSTA ARAUJO                        
0000001425030820111632A012717770196GLEISON PIO SOARES                                  
0000001435030820111632A012717770196GLEISON PIO SOARES                                  
0000001445030820111632A012952884198REGILANE PEREIRA ALMEIDA                            
0000001455030820111632A012952884198REGILANE PEREIRA ALMEIDA                            
0000001465030820111632A012991024196OSMILDO DA SILVA MONTEIRO                           
0000001475030820111632A012991024196OSMILDO DA SILVA MONTEIRO                           
0000001485030820111632A013004430192ANTONIO CARLOS SILVA ALMEIDA                        
0000001495030820111632A013004430192ANTONIO CARLOS SILVA ALMEIDA                        
0000001505030820111632A013010380193LUIS CORREIA DE CASTRO                              
0000001515030820111632A013010380193LUIS CORREIA DE CASTRO                              
0000001525030820111632A013216779199JENILSON GOMES PEREIRA                              
0000001535030820111632A013216779199JENILSON GOMES PEREIRA                              
0000001545030820111632A013268280195RAIMUNDO NONATO DA SILVA                            
0000001555030820111632A013268280195RAIMUNDO NONATO DA SILVA                            
0000001565030820111632A013288406194LAELSON PESSOA DA COSTA                             
0000001575030820111632A013288406194LAELSON PESSOA DA COSTA                             
0000001585030820111632A013315490197FRANCISCO GILBERTO DA SILVA COSTA                   
0000001595030820111632A013315490197FRANCISCO GILBERTO DA SILVA COSTA                   
0000001605030820111632A013353397190TIAGO GALDINO DA SILVA                              
0000001615030820111632A013353397190TIAGO GALDINO DA SILVA                              
0000001625030820111633A013413989196JOAO CARLOS RIBEIRO SANTOS                          
0000001635030820111633A013413989196JOAO CARLOS RIBEIRO SANTOS                          
0000001645030820111633A013433937191JARLEY ALMEIDA SILVA                                
0000001655030820111633A013433937191JARLEY ALMEIDA SILVA                                
0000001665030820111633A013462637192FRANCISCO GERSON R DA ROCHA                         
0000001675030820111633A013462637192FRANCISCO GERSON R DA ROCHA                         
0000001685030820111633A013480732193JAMES GARCIA CARNEIRO DE FREITAS                    
0000001695030820111633A013480732193JAMES GARCIA CARNEIRO DE FREITAS                    
0000001705030820111633A013491568195JOAO BATISTA PEREIRA                                
0000001715030820111633A013491568195JOAO BATISTA PEREIRA                                
0000001725030820111633A013577429193JOSE ANTONIO DA SILVA NASCIMENTO                    
0000001735030820111633A013577429193JOSE ANTONIO DA SILVA NASCIMENTO                    
0000001745030820111633I013665127199ELSON DA SILVA GONDIM                               
0000001755030820111633A013665127199ELSON DA SILVA GONDIM                               
0000001765030820111633A013678336190JOABE SANTOS OLIVEIRA                               
0000001775030820111633A013678336190JOABE SANTOS OLIVEIRA                               
0000001785030820111633A013683257198FRANCISCO DE ASSIS DA SILVA PINHEIRO                
0000001795030820111633A013683257198FRANCISCO DE ASSIS DA SILVA PINHEIRO                
0000001805030820111633A013764659199CESAR ADRIANO DOS SANTOS                            
0000001815030820111633A013764659199CESAR ADRIANO DOS SANTOS                            
0000001825030820111633A013899079190PAULO MARTINS DE LIMA                               
0000001835030820111633A013899079190PAULO MARTINS DE LIMA                               
0000001845030820111633A013910174190ADELSON CAVALCANTE DOS SANTOS                       
0000001855030820111633A013910174190ADELSON CAVALCANTE DOS SANTOS                       
0000001865030820111633A013983816192JOSE JOCELINO SILVA SANTOS                          
0000001875030820111633A013983816192JOSE JOCELINO SILVA SANTOS                          
0000001885030820111633A016145750082BRUNO LIMA GOAINA                                   
0000001895030820111633A016145750082BRUNO LIMA GOAINA                                   
0000001905030820111633A016447134716LUIS PAULO DA SILVA MARTINS                         
0000001915030820111633A016447134716LUIS PAULO DA SILVA MARTINS                         
0000001925030820111633A017040389418JURACY JERONIMO DE ASSIS                            
0000001935030820111633A017040389418JURACY JERONIMO DE ASSIS                            
0000001945030820111633A020060760545NATALIA MARIA MENDES DA SILVA                       
0000001955030820111633A020060760545NATALIA MARIA MENDES DA SILVA                       
0000001965030820111633A020087660274TIAGO RAFAEL MARCOS DO VALE LIMA                    
0000001975030820111633A020087660274TIAGO RAFAEL MARCOS DO VALE LIMA                    
0000001985030820111633I020645337042LENILTON DA MOTA DE SOUSA FILHO                     
0000001995030820111633A020645337042LENILTON DA MOTA DE SOUSA FILHO                     
0000002005030820111633A020912706486ANDERSON LIMA MONTEIRO                              
0000002015030820111633A020912706486ANDERSON LIMA MONTEIRO                              
0000002025030820111633A020925069811LEANDRO SILVA COSTA                                 
0000002035030820111633A020925069811LEANDRO SILVA COSTA                                 
0000002045030820111633A020930157162JOAO MARCOS ALVES SILVA                             
0000002055030820111633A020930157162JOAO MARCOS ALVES SILVA                             
0000002063030820111745013288406194
0000002073040820110635013004430192
0000002083040820110651013433937191
0000002093040820110701013491568195
0000002103040820110703013683257198
0000002113040820110709016145750082
0000002123040820110709012497773728
0000002133040820110710013288406194
0000002143040820110710017040389418
0000002153040820110710012427760716
0000002163040820110744012717770196
0000002173040820110745012437126750
0000002183040820110745020087660274
0000002193040820110745012419181540
0000002203040820110745012504537435
0000002213040820110746012531248899
0000002223040820110747013480732193
0000002233040820110747012656745197
0000002243040820110748013910174190
0000002253040820110752012194959213
0000002263040820110754010816456345
0000002273040820110754012230353405
0000002283040820110754013983816192
0000002293040820110754013216779199
0000002303040820110754013010380193
0000002313040820110755013315490197
0000002323040820110755013462637192
0000002333040820110755013577429193
0000002343040820110755012548615946
0000002353040820110755012645821199
0000002363040820110755013353397190
0000002373040820110756020925069811
0000002383040820110756016447134716
0000002393040820110757012048762958
0000002403040820110800017040389418
0000002413040820110800012590808196
0000002423040820110803012530583554
0000002433040820110824013764659199
0000002443040820110834013678336190
0000002453040820110836013413989196
0000002465040820110844I012300498520FRANCISCO SANCHO DE ASSIS FILHO                     
0000002475040820110844A012300498520FRANCISCO SANCHO DE ASSIS FILHO                     
0000002485040820110844I012977088190MARCELO ANDRADE GON큐LVES                           
0000002495040820110844A012977088190MARCELO ANDRADE GON큐LVES                           
0000002505040820110844I013236179197VALDINE OLIVEIRA SANTOS                             
0000002515040820110844A013236179197VALDINE OLIVEIRA SANTOS                             
0000002525040820110911I012218054711NEHEMIAS DE OLIVEIRA RIBEIRO                        
0000002535040820110911A012218054711NEHEMIAS DE OLIVEIRA RIBEIRO                        
0000002543040820110916012991024196
0000002555040820110944I016214144395JOSE CLAUDEIR COSTA FERREIRA                        
0000002565040820110944A016214144395JOSE CLAUDEIR COSTA FERREIRA                        
0000002573040820111302013683257198
0000002583040820111340020930157162
0000002593040820111349013268280195
0000002603040820111422013413989196
0000002613040820111602013764659199
0000002623040820111657012497773728
0000002633040820111658016145750082
0000002643040820111658013433937191
0000002653040820111701013004430192
0000002663040820111702012427760716
0000002673040820111702016214144395
0000002683040820111703013491568195
0000002693040820111703017040389418
0000002703040820111704013683257198
0000002715040820111744A010716149149FRANCISCO DE SOUZA FILHO                            
0000002725040820111744A010716149149FRANCISCO DE SOUZA FILHO                            
0000002735040820111744A010816456345FRANCISCO FIRMINO DA SILVA                          
0000002745040820111744A010816456345FRANCISCO FIRMINO DA SILVA                          
0000002755040820111744A012048762958JOSE IRAN PEREIRA SOUSA                             
0000002765040820111744A012048762958JOSE IRAN PEREIRA SOUSA                             
0000002775040820111744A012194959213WILLAMS MAIA MELO                                   
0000002785040820111744A012194959213WILLAMS MAIA MELO                                   
0000002795040820111744A012218054711NEHEMIAS DE OLIVEIRA RIBEIRO                        
0000002805040820111744A012218054711NEHEMIAS DE OLIVEIRA RIBEIRO                        
0000002815040820111744A012230353405CLOVIS ANTONIO LEMOS DA SILVA                       
0000002825040820111744A012230353405CLOVIS ANTONIO LEMOS DA SILVA                       
0000002835040820111744A012300498520FRANCISCO SANCHO DE ASSIS FILHO                     
0000002845040820111744A012300498520FRANCISCO SANCHO DE ASSIS FILHO                     
0000002855040820111744A012321230438MARCOS ANTONIO HARTER MOURA                         
0000002865040820111744A012321230438MARCOS ANTONIO HARTER MOURA                         
0000002875040820111744A012419181540SALVIANO MORAES NOGUEIRA                            
0000002885040820111744A012419181540SALVIANO MORAES NOGUEIRA                            
0000002895040820111744A012427760716FRANCISCO JOSE MACIEL                               
0000002905040820111744A012427760716FRANCISCO JOSE MACIEL                               
0000002915040820111744A012437126750RICARDO CESAR DO NASCIMENTO                         
0000002925040820111744A012437126750RICARDO CESAR DO NASCIMENTO                         
0000002935040820111744A012497773728LUIZ FERNANDO PEREIRA DA SILVA                      
0000002945040820111744A012497773728LUIZ FERNANDO PEREIRA DA SILVA                      
0000002955040820111744A012504537435PEDRO CIPRIANO JUNIOR                               
0000002965040820111744A012504537435PEDRO CIPRIANO JUNIOR                               
0000002975040820111744A012530583554FRANCISCO JOSE LOPES DOS SANTOS                     
0000002985040820111744A012530583554FRANCISCO JOSE LOPES DOS SANTOS                     
0000002995040820111744A012531248899FRANCISCO DAS CHAGAS RODRIGUES                      
0000003005040820111744A012531248899FRANCISCO DAS CHAGAS RODRIGUES                      
0000003015040820111744A012548615946CLAUDIO MARCOS ALVES DA SILVA                       
0000003025040820111744A012548615946CLAUDIO MARCOS ALVES DA SILVA                       
0000003035040820111744A012590808196ERMINIO JARDIM DE LIMA                              
0000003045040820111744A012590808196ERMINIO JARDIM DE LIMA                              
0000003055040820111744A012645821199CARLOS ANDRE DA SILVA                               
0000003065040820111744A012645821199CARLOS ANDRE DA SILVA                               
0000003075040820111744A012656745197NAGELA CRISTINA COSTA ARAUJO                        
0000003085040820111744A012656745197NAGELA CRISTINA COSTA ARAUJO                        
0000003095040820111744A012717770196GLEISON PIO SOARES                                  
0000003105040820111744A012717770196GLEISON PIO SOARES                                  
0000003115040820111744A012952884198REGILANE PEREIRA ALMEIDA                            
0000003125040820111744A012952884198REGILANE PEREIRA ALMEIDA                            
0000003135040820111744A012977088190MARCELO ANDRADE GON큐LVES                           
0000003145040820111744A012977088190MARCELO ANDRADE GON큐LVES                           
0000003155040820111744A012991024196OSMILDO DA SILVA MONTEIRO                           
0000003165040820111744A012991024196OSMILDO DA SILVA MONTEIRO                           
0000003175040820111744A013004430192ANTONIO CARLOS SILVA ALMEIDA                        
0000003185040820111744A013004430192ANTONIO CARLOS SILVA ALMEIDA                        
0000003195040820111744A013010380193LUIS CORREIA DE CASTRO                              
0000003205040820111744A013010380193LUIS CORREIA DE CASTRO                              
0000003215040820111744A013216779199JENILSON GOMES PEREIRA                              
0000003225040820111744A013216779199JENILSON GOMES PEREIRA                              
0000003235040820111744A013236179197VALDINE OLIVEIRA SANTOS                             
0000003245040820111744A013236179197VALDINE OLIVEIRA SANTOS                             
0000003255040820111744A013268280195RAIMUNDO NONATO DA SILVA                            
0000003265040820111744A013268280195RAIMUNDO NONATO DA SILVA                            
0000003275040820111744A013288406194LAELSON PESSOA DA COSTA                             
0000003285040820111744A013288406194LAELSON PESSOA DA COSTA                             
0000003295040820111744A013315490197FRANCISCO GILBERTO DA SILVA COSTA                   
0000003305040820111744A013315490197FRANCISCO GILBERTO DA SILVA COSTA                   
0000003315040820111744A013353397190TIAGO GALDINO DA SILVA                              
0000003325040820111744A013353397190TIAGO GALDINO DA SILVA                              
0000003335040820111744A013413989196JOAO CARLOS RIBEIRO SANTOS                          
0000003345040820111744A013413989196JOAO CARLOS RIBEIRO SANTOS                          
0000003355040820111744A013433937191JARLEY ALMEIDA SILVA                                
0000003365040820111744A013433937191JARLEY ALMEIDA SILVA                                
0000003375040820111744A013462637192FRANCISCO GERSON R DA ROCHA                         
0000003385040820111744A013462637192FRANCISCO GERSON R DA ROCHA                         
0000003395040820111744A013480732193JAMES GARCIA CARNEIRO DE FREITAS                    
0000003405040820111744A013480732193JAMES GARCIA CARNEIRO DE FREITAS                    
0000003415040820111744A013491568195JOAO BATISTA PEREIRA                                
0000003425040820111744A013491568195JOAO BATISTA PEREIRA                                
0000003435040820111744A013577429193JOSE ANTONIO DA SILVA NASCIMENTO                    
0000003445040820111744A013577429193JOSE ANTONIO DA SILVA NASCIMENTO                    
0000003455040820111744A013665127199ELSON DA SILVA GONDIM                               
0000003465040820111744A013665127199ELSON DA SILVA GONDIM                               
0000003475040820111744A013678336190JOABE SANTOS OLIVEIRA                               
0000003485040820111744A013678336190JOABE SANTOS OLIVEIRA                               
0000003495040820111744A013683257198FRANCISCO DE ASSIS DA SILVA PINHEIRO                
0000003505040820111744A013683257198FRANCISCO DE ASSIS DA SILVA PINHEIRO                
0000003515040820111744A013764659199CESAR ADRIANO DOS SANTOS                            
0000003525040820111744A013764659199CESAR ADRIANO DOS SANTOS                            
0000003535040820111744A013899079190PAULO MARTINS DE LIMA                               
0000003545040820111744A013899079190PAULO MARTINS DE LIMA                               
0000003555040820111744A013910174190ADELSON CAVALCANTE DOS SANTOS                       
0000003565040820111744A013910174190ADELSON CAVALCANTE DOS SANTOS                       
0000003575040820111744A013983816192JOSE JOCELINO SILVA SANTOS                          
0000003585040820111744A013983816192JOSE JOCELINO SILVA SANTOS                          
0000003595040820111744A016145750082BRUNO LIMA GOAINA                                   
0000003605040820111744A016145750082BRUNO LIMA GOAINA                                   
0000003615040820111744A016214144395JOSE CLAUDEIR COSTA FERREIRA                        
0000003625040820111744A016214144395JOSE CLAUDEIR COSTA FERREIRA                        
0000003635040820111744A016447134716LUIS PAULO DA SILVA MARTINS                         
0000003645040820111744A016447134716LUIS PAULO DA SILVA MARTINS                         
0000003655040820111744A017040389418JURACY JERONIMO DE ASSIS                            
0000003665040820111744A017040389418JURACY JERONIMO DE ASSIS                            
0000003675040820111744A020060760545NATALIA MARIA MENDES DA SILVA                       
0000003685040820111744A020060760545NATALIA MARIA MENDES DA SILVA                       
0000003695040820111744A020087660274TIAGO RAFAEL MARCOS DO VALE LIMA                    
0000003705040820111744A020087660274TIAGO RAFAEL MARCOS DO VALE LIMA                    
0000003715040820111744A020645337042LENILTON DA MOTA DE SOUSA FILHO                     
0000003725040820111744A020645337042LENILTON DA MOTA DE SOUSA FILHO                     
0000003735040820111744A020912706486ANDERSON LIMA MONTEIRO                              
0000003745040820111744A020912706486ANDERSON LIMA MONTEIRO                              
0000003755040820111744A020925069811LEANDRO SILVA COSTA                                 
0000003765040820111744A020925069811LEANDRO SILVA COSTA                                 
0000003775040820111744A020930157162JOAO MARCOS ALVES SILVA                             
0000003785040820111744A020930157162JOAO MARCOS ALVES SILVA                             
0000003793040820111746013288406194
0000003803040820111800012048762958
0000003813040820111800012218054711
0000003823040820111804012504537435
0000003833040820111829013910174190
0000003843040820111829020925069811
0000003853040820111829013462637192
0000003863040820111829013216779199
0000003873040820111829013010380193
0000003883040820111833012194959213
0000003893040820111834016447134716
0000003903040820111835012656745197
0000003913040820111836013480732193
0000003923040820111837013983816192
0000003933040820111837013577429193
0000003943040820111837013315490197
0000003953040820111837012717770196
0000003963040820111837012230353405
0000003973040820111838020087660274
0000003983040820111838010716149149
0000003993040820111838013353397190
0000004003040820111840012645821199
0000004013040820111840012548615946
0000004023040820111840012531248899
0000004033040820111841010816456345
0000004043040820111841012437126750
0000004053040820111841012530583554
0000004063040820112206020930157162
0000004073040820112207013268280195
0000004084050820110003010120100000
0000004094010120100807050820110811
0000004104080820110812080820110812
0000004112190820111136109325874000193000000000000COMPANHIA BRASILEIRA DE BEBIDAS     PREMIUM                                                                                                           ROD. CE O40, S/N KM 43,7            CENTRO PINDORETAMA-CE               CEP 62.860-000              
0000004124190820111136190820111136
0000004133190820111144020060760545
0000004143190820112035013010380193
0000004153190820112036013462637192
0000004163190820112036013004430192
0000004173190820112036010816456345
0000004183190820112037013433937191
0000004193190820112042016447134716
0000004203190820112042013315490197
0000004213190820112043013899079190
0000004223190820112044013983816192
0000004233190820112044020925069811
0000004243190820112051012419181540
0000004253190820112051013577429193
0000004263190820112054012194959213
0000004273200820110553013764659199
0000004283200820110825013764659199
0000004293220820110550013678336190
0000004303220820110553013764659199
0000004313220820110626016214144395
0000004323220820110637013004430192
0000004333220820110657013288406194
0000004343220820110657013433937191
0000004353220820110657012218054711
0000004363220820110659016145750082
0000004373220820110659012497773728
0000004383220820110659012427760716
0000004393220820110729013899079190
0000004403220820110734012590808196
0000004413220820110736016447134716
0000004423220820110736012548615946
0000004433220820110736020925069811
0000004443220820110736012230353405
0000004453220820110736013315490197
0000004463220820110737013216779199
0000004473220820110737010816456345
0000004483220820110737013983816192
0000004493220820110738013577429193
0000004503220820110738012645821199
0000004513220820110740013462637192
0000004523220820110741013010380193
0000004533220820110741013480732193
0000004543220820110742013353397190
0000004553220820110754012717770196
0000004563220820110754012048762958
0000004573220820110754012656745197
0000004583220820110755020087660274
0000004593220820110755013910174190
0000004603220820110757010716149149
0000004613220820110758012300498520
0000004623220820110758012194959213
0000004633220820110759012437126750
0000004643220820111420013764659199
0000004653220820111659016145750082
0000004663220820111700012497773728
0000004673220820111700012218054711
0000004683220820111700013433937191
0000004693220820111701013004430192
0000004703220820111701013491568195
0000004713220820111703013288406194
0000004723220820111704012427760716
0000004733220820111707016214144395
0000004743220820111727013353397190
0000004753220820111800013216779199
0000004763220820111801013462637192
0000004773220820111801013010380193
0000004783220820111820012194959213
0000004793220820111824012300498520
0000004803220820111824010716149149
0000004813220820111824013236179197
0000004823220820111827013899079190
0000004833220820111829012504537435
0000004843220820111829013910174190
0000004853220820111829013480732193
0000004863220820111829012645821199
0000004873220820111829012717770196
0000004883220820111829012048762958
0000004893220820111829012548615946
0000004903220820111829016447134716
0000004913220820111830013983816192
0000004923220820111830012656745197
0000004933220820111833012437126750
0000004943220820111833012230353405
0000004953220820111833020087660274
0000004963220820111834020925069811
0000004973220820111834010816456345
0000004983220820111840013315490197
0000004993220820111840013577429193
0000005003230820110601013764659199
0000005013230820110639016214144395
0000005023230820110640013004430192
0000005033230820110647012497773728
0000005043230820110648012218054711
0000005053230820110659016145750082
0000005063230820110659012427760716
0000005073230820110702013288406194
0000005083230820110702013433937191
0000005093230820110702013433937191
0000005103230820110734013899079190
0000005113230820110736013010380193
0000005123230820110736013462637192
0000005133230820110736012645821199
0000005143230820110738012230353405
0000005153230820110738010816456345
0000005163230820110738016447134716
0000005173230820110738013315490197
0000005183230820110738012548615946
0000005193230820110739013983816192
0000005203230820110739013216779199
0000005213230820110739013353397190
0000005223230820110739013480732193
0000005233230820110739013577429193
0000005243230820110743013236179197
0000005253230820110744012300498520
0000005263230820110744012048762958
0000005273230820110744012717770196
0000005283230820110744010716149149
0000005293230820110744012656745197
0000005303230820110744013910174190
0000005313230820110744012504537435
0000005323230820110745012194959213
0000005333230820110745012437126750
0000005343230820110748012530583554
0000005353230820110751012419181540
0000005363230820110755020087660274
0000005373230820111055012218054711
0000005383230820111055013433937191
0000005393230820111137012218054711
0000005403230820111139013288406194
0000005413230820111140012504537435
0000005423230820111159013433937191
0000005433230820111300013288406194
0000005443230820111430013764659199
0000005453230820111700013433937191
0000005463230820111700012218054711
0000005473230820111700013004430192
0000005483230820111700013491568195
0000005493230820111700013288406194
0000005503230820111701016145750082
0000005513230820111701016214144395
0000005523230820111702012497773728
0000005533230820111703012427760716
0000005543230820111755013899079190
0000005553230820111757013480732193
0000005563230820111757013010380193
0000005573230820111758013462637192
0000005583230820111758013216779199
0000005593230820111800012548615946
0000005603230820111800012717770196
0000005613230820111800012504537435
0000005623230820111800010716149149
0000005633230820111800013910174190
0000005643230820111800013353397190
0000005653230820111800012194959213
0000005663230820111801012048762958
0000005673230820111803013315490197
0000005683230820111803013983816192
0000005693230820111803016447134716
0000005703230820111803010816456345
0000005713230820111803012419181540
0000005723230820111803012645821199
0000005733230820111804013577429193
0000005743230820111804012230353405
0000005753230820111805012437126750
0000005763230820111805020087660274
0000005773230820111805013236179197
0000005783230820111806012300498520
0000005793240820110557013764659199
0000005803240820110632016214144395
0000005813240820110635013004430192
0000005823240820110647017040389418
0000005833240820110648013491568195
0000005843240820110648012427760716
0000005853240820110652016145750082
0000005863240820110652012218054711
0000005873240820110653012497773728
0000005883240820110657013288406194
0000005893240820110658013433937191
0000005903240820110731013010380193
0000005913240820110732013462637192
0000005923240820110732012645821199
0000005933240820110732013577429193
0000005943240820110732012548615946
0000005953240820110732013480732193
0000005963240820110732013353397190
0000005973240820110733013216779199
0000005983240820110733013315490197
0000005993240820110733012230353405
0000006003240820110734013983816192
0000006013240820110735010816456345
0000006023240820110740020925069811
0000006033240820110740016447134716
0000006043240820110740010716149149
0000006053240820110740012048762958
0000006063240820110740013910174190
0000006073240820110741012952884198
0000006083240820110741012194959213
0000006093240820110741012656745197
0000006103240820110741012419181540
0000006113240820110743012504537435
0000006123240820110743012977088190
0000006133240820110743012437126750
0000006145240820110803I012799555197AGNALDO DOS SANTOS ROCHA                            
0000006155240820110803A012799555197AGNALDO DOS SANTOS ROCHA                            
0000006163240820110807013236179197
0000006173240820110810012799555197
0000006183240820110834020087660274
0000006193240820111105013433937191
0000006203240820111125012218054711
0000006213240820111201012218054711
0000006223240820111202013433937191
0000006233240820111337013268280195
0000006243240820111421013764659199
0000006253240820111651020087660274
0000006263240820111653012437126750
0000006273240820111700012218054711
0000006283240820111700013433937191
0000006293240820111700010716149149
0000006303240820111700017040389418
0000006313240820111700012194959213
0000006323240820111700013004430192
0000006333240820111700013491568195
0000006343240820111700013462637192
0000006353240820111700012977088190
0000006363240820111700013910174190
0000006373240820111700013236179197
0000006383240820111700013315490197
0000006393240820111700012548615946
0000006403240820111701016447134716
0000006413240820111701020925069811
0000006423240820111701013983816192
0000006433240820111701012799555197
0000006443240820111701012419181540
0000006453240820111701012497773728
0000006463240820111701012048762958
0000006473240820111701013216779199
0000006483240820111701016145750082
0000006493240820111701012504537435
0000006503240820111701013577429193
0000006513240820111701012230353405
0000006523240820111701010816456345
0000006533240820111702013010380193
0000006543240820111702012645821199
0000006553240820111702013480732193
0000006563240820111702013353397190
0000006573240820111702013288406194
0000006583240820111702016214144395
0000006593250820110557013764659199
0000006603250820110557012991024196
0000006613250820110557013678336190
0000006623250820110636016214144395
0000006633250820110638013004430192
0000006643250820110638013004430192
0000006653250820110645016145750082
0000006663250820110647012218054711
0000006673250820110649017040389418
0000006683250820110649013491568195
0000006693250820110654012427760716
0000006703250820110656013433937191
0000006713250820110657013288406194
0000006723250820110704012497773728
0000006733250820110733012717770196
0000006743250820110733012048762958
0000006753250820110733012799555197
0000006763250820110733012419181540
0000006773250820110734013910174190
0000006783250820110734010716149149
0000006793250820110735012952884198
0000006803250820110735012656745197
0000006813250820110735020087660274
0000006823250820110735012437126750
0000006833250820110737012194959213
0000006843250820110737013899079190
0000006853250820110738012504537435
0000006863250820110743013983816192
0000006873250820110743013577429193
0000006883250820110744013216779199
0000006893250820110744013315490197
0000006903250820110744013462637192
0000006913250820110744013010380193
0000006923250820110744013480732193
0000006933250820110744012645821199
0000006943250820110744010816456345
0000006953250820110744012230353405
0000006963250820110744013353397190
0000006973250820110745020925069811
0000006983250820110747016447134716
0000006993250820110812012977088190
0000007003250820111044013236179197
0000007013250820111100013433937191
0000007023250820111141013433937191
0000007033250820111333020930157162
0000007043250820111417013678336190
0000007053250820111418012991024196
0000007063250820111425013764659199
0000007073250820111600012799555197
0000007083250820111700013433937191
0000007093250820111700012218054711
0000007103250820111700013462637192
0000007113250820111700010716149149
0000007123250820111700017040389418
0000007133250820111700013004430192
0000007143250820111700012717770196
0000007153250820111700013899079190
0000007163250820111700013315490197
0000007173250820111700013216779199
0000007183250820111701016145750082
0000007193250820111701013010380193
0000007203250820111701012048762958
0000007213250820111701013983816192
0000007223250820111701012497773728
0000007233250820111701013910174190
0000007243250820111701012427760716
0000007253250820111701016214144395
0000007263250820111701012977088190
0000007273250820111701016447134716
0000007283250820111701013480732193
0000007293250820111701013353397190
0000007303250820111702020925069811
0000007313250820111702012645821199
0000007323250820111702013577429193
0000007333250820111702013288406194
0000007343250820111703010816456345
0000007353250820111706013491568195
0000007363250820111708012504537435
0000007373250820111711012194959213
0000007383250820111714020087660274
0000007393250820111714012437126750
0000007403250820111715012230353405
0000007413250820111715013236179197
0000007423250820111717012656745197
0000007433250820111717012419181540
0000007443250820111717012952884198
0000007453250820112113020930157162
0000007463260820110602013764659199
0000007473260820110602012991024196
0000007483260820110602013678336190
0000007493260820110628013004430192
0000007503260820110645016214144395
0000007513260820110645012497773728
0000007523260820110648013491568195
0000007533260820110650017040389418
0000007543260820110653012218054711
0000007553260820110655013433937191
0000007563260820110659016145750082
0000007573260820110659013288406194
0000007583260820110701012427760716
0000007593260820110724012799555197
0000007603260820110737013216779199
0000007613260820110737012230353405
0000007623260820110737013315490197
0000007633260820110737013983816192
0000007643260820110737013480732193
0000007653260820110737013577429193
0000007663260820110737012419181540
0000007673260820110737012504537435
0000007683260820110737013236179197
0000007693260820110737012548615946
0000007703260820110738012048762958
0000007713260820110738012645821199
0000007723260820110738020087660274
0000007733260820110738010816456345
0000007743260820110738012717770196
0000007753260820110739012656745197
0000007763260820110739012531248899
0000007773260820110739012952884198
0000007783260820110739012194959213
0000007793260820110739013353397190
0000007803260820110742012437126750
0000007813260820110742013899079190
0000007823260820110742013462637192
0000007833260820110743013010380193
0000007843260820110751020925069811
0000007853260820110751016447134716
0000007863260820110843013910174190
0000007873260820111208012048762958
0000007883260820111335020930157162
0000007893260820111528013678336190
0000007903260820111551012717770196
0000007913260820111551012977088190
0000007923260820111553012419181540
0000007933260820111556012991024196
0000007943260820111558013764659199
0000007953260820111600013315490197
0000007963260820111600013899079190
0000007973260820111600013983816192
0000007983260820111600013433937191
0000007993260820111600012194959213
0000008003260820111600013236179197
0000008013260820111600013910174190
0000008023260820111601012218054711
0000008033260820111601012218054711
0000008043260820111601013004430192
0000008053260820111601012645821199
0000008063260820111601013577429193
0000008073260820111601012504537435
0000008083260820111601012531248899
0000008093260820111601012427760716
0000008103260820111602010816456345
0000008113260820111602012497773728
0000008123260820111602016145750082
0000008133260820111602016214144395
0000008143260820111604013010380193
0000008153260820111604013353397190
0000008163260820111604013480732193
0000008173260820111604013216779199
0000008183260820111604012230353405
0000008193260820111605020087660274
0000008203260820111605012437126750
0000008213260820111606020925069811
0000008223260820111606013462637192
0000008233260820111606016447134716
0000008243260820111606012548615946
0000008253260820111608013491568195
0000008263260820111615013288406194
0000008273260820111903012530583554
0000008283260820112206020930157162
0000008293270820110556012991024196
0000008303270820110556013764659199
0000008313270820110733012437126750
0000008323270820110755020087660274
0000008333270820110800012991024196
0000008343270820110800013764659199
0000008353270820111730012437126750
0000008363270820111732020087660274
0000008373270820111954012300498520
0000008383280820110756012300498520
0000008393280820111907012300498520
0000008403290820110555012991024196
0000008413290820110558013764659199
0000008423290820110634016214144395
0000008433290820110636013004430192
0000008443290820110636012218054711
0000008453290820110644012497773728
0000008463290820110645017040389418
0000008473290820110645013491568195
0000008483290820110649016145750082
0000008493290820110653013683257198
0000008503290820110655013433937191
0000008513290820110657013288406194
0000008523290820110705012427760716
0000008533290820110738013910174190
0000008543290820110738012717770196
0000008553290820110738012230353405
0000008563290820110738013216779199
0000008573290820110738013315490197
0000008583290820110738010816456345
0000008593290820110738013983816192
0000008603290820110739012048762958
0000008613290820110739013462637192
0000008623290820110739013480732193
0000008633290820110739020087660274
0000008643290820110739012419181540
0000008653290820110739013010380193
0000008663290820110739012645821199
0000008673290820110739012656745197
0000008683290820110739013236179197
0000008693290820110740013577429193
0000008703290820110740013353397190
0000008713290820110740012437126750
0000008723290820110741012194959213
0000008733290820110741012531248899
0000008743290820110742012504537435
0000008753290820110745016447134716
0000008763290820110745020925069811
0000008773290820110749013899079190
0000008783290820110752012799555197
0000008793290820110804012300498520
0000008803290820110824012977088190
0000008813290820111106012952884198
0000008823290820111428012991024196
0000008833290820111441013764659199
0000008843290820111701012218054711
0000008853290820111702016145750082
0000008863290820111702012427760716
0000008873290820111703012497773728
0000008883290820111703013004430192
0000008893290820111703013491568195
0000008903290820111703017040389418
0000008913290820111704013433937191
0000008923290820111707013683257198
0000008933290820111737016214144395
0000008943290820111746013288406194
0000008953290820111835012530583554
0000008963290820111845013899079190
0000008973290820111956012548615946
0000008983290820111959012977088190
0000008993290820112000013010380193
0000009003290820112000013216779199
0000009013290820112001012799555197
0000009023290820112002012504537435
0000009033290820112003013910174190
0000009043290820112003012531248899
0000009053290820112005012048762958
0000009063290820112007012437126750
0000009073290820112007020087660274
0000009083290820112007013983816192
0000009093290820112007010816456345
0000009103290820112007020925069811
0000009113290820112007012717770196
0000009123290820112008013315490197
0000009133290820112008012645821199
0000009143290820112008013577429193
0000009153290820112009016447134716
0000009163290820112011013480732193
0000009173290820112011013353397190
0000009183290820112012013462637192
0000009193290820112012012230353405
0000009203290820112012013236179197
0000009213290820112013012419181540
0000009223290820112016012194959213
0000009233290820112018012952884198
0000009243300820110555013764659199
0000009253300820110556012991024196
0000009263300820110556013678336190
0000009273300820110556012548615946
0000009283300820110627016214144395
0000009293300820110633013004430192
0000009303300820110634013491568195
0000009313300820110647017040389418
0000009323300820110648012497773728
0000009333300820110648012218054711
0000009343300820110649016145750082
0000009353300820110654013433937191
0000009363300820110655013683257198
0000009373300820110657012427760716
0000009383300820110658013288406194
0000009393300820110734012230353405
0000009403300820110734013216779199
0000009413300820110734010816456345
0000009423300820110734013983816192
0000009433300820110735013315490197
0000009443300820110735013462637192
0000009453300820110735013010380193
0000009463300820110735013577429193
0000009473300820110735013353397190
0000009483300820110735013480732193
0000009493300820110735012645821199
0000009503300820110738012300498520
0000009513300820110738012048762958
0000009523300820110738013910174190
0000009533300820110738012419181540
0000009543300820110738012717770196
0000009553300820110738010716149149
0000009563300820110739020087660274
0000009573300820110739012656745197
0000009583300820110739013236179197
0000009593300820110739012530583554
0000009603300820110740012194959213
0000009613300820110741012437126750
0000009623300820110742016447134716
0000009633300820110742020925069811
0000009643300820110742012952884198
0000009653300820110743012504537435
0000009663300820110743012977088190
0000009673300820110744013899079190
0000009683300820110747012799555197
0000009695300820110935I010286361040FRANCISCO ROBLES VALVERDE                           
0000009705300820110935A010286361040FRANCISCO ROBLES VALVERDE                           
0000009715300820110935I012624497198ANTONIO ERIELDER CAMELO DOS SANTOS                  
0000009725300820110935A012624497198ANTONIO ERIELDER CAMELO DOS SANTOS                  
0000009735300820110935A010286361040FRANCISCO ROBLES VALVERDE                           
0000009745300820110935A010286361040FRANCISCO ROBLES VALVERDE                           
0000009755300820110935A010716149149FRANCISCO DE SOUZA FILHO                            
0000009765300820110935A010716149149FRANCISCO DE SOUZA FILHO                            
0000009775300820110935A010816456345FRANCISCO FIRMINO DA SILVA                          
0000009785300820110936A010816456345FRANCISCO FIRMINO DA SILVA                          
0000009795300820110936A012048762958JOSE IRAN PEREIRA SOUSA                             
0000009805300820110936A012048762958JOSE IRAN PEREIRA SOUSA                             
0000009815300820110936A012194959213WILLAMS MAIA MELO                                   
0000009825300820110936A012194959213WILLAMS MAIA MELO                                   
0000009835300820110936A012218054711NEHEMIAS DE OLIVEIRA RIBEIRO                        
0000009845300820110936A012218054711NEHEMIAS DE OLIVEIRA RIBEIRO                        
0000009855300820110936A012230353405CLOVIS ANTONIO LEMOS DA SILVA                       
0000009865300820110936A012230353405CLOVIS ANTONIO LEMOS DA SILVA                       
0000009875300820110936A012300498520FRANCISCO SANCHO DE ASSIS FILHO                     
0000009885300820110936A012300498520FRANCISCO SANCHO DE ASSIS FILHO                     
0000009895300820110936A012321230438MARCOS ANTONIO HARTER MOURA                         
0000009905300820110936A012321230438MARCOS ANTONIO HARTER MOURA                         
0000009915300820110936A012419181540SALVIANO MORAES NOGUEIRA                            
0000009925300820110936A012419181540SALVIANO MORAES NOGUEIRA                            
0000009935300820110936A012427760716FRANCISCO JOSE MACIEL                               
0000009945300820110936A012427760716FRANCISCO JOSE MACIEL                               
0000009955300820110936A012437126750RICARDO CESAR DO NASCIMENTO                         
0000009965300820110936A012437126750RICARDO CESAR DO NASCIMENTO                         
0000009975300820110936A012497773728LUIZ FERNANDO PEREIRA DA SILVA                      
0000009985300820110936A012497773728LUIZ FERNANDO PEREIRA DA SILVA                      
0000009995300820110936A012504537435PEDRO CIPRIANO JUNIOR                               
0000010005300820110936A012504537435PEDRO CIPRIANO JUNIOR                               
0000010015300820110936A012530583554FRANCISCO JOSE LOPES DOS SANTOS                     
0000010025300820110936A012530583554FRANCISCO JOSE LOPES DOS SANTOS                     
0000010035300820110936A012531248899FRANCISCO DAS CHAGAS RODRIGUES                      
0000010045300820110936A012531248899FRANCISCO DAS CHAGAS RODRIGUES                      
0000010055300820110936A012548615946CLAUDIO MARCOS ALVES DA SILVA                       
0000010065300820110936A012548615946CLAUDIO MARCOS ALVES DA SILVA                       
0000010075300820110936A012590808196ERMINIO JARDIM DE LIMA                              
0000010085300820110936A012590808196ERMINIO JARDIM DE LIMA                              
0000010095300820110936A012624497198ANTONIO ERIELDER CAMELO DOS SANTOS                  
0000010105300820110936A012624497198ANTONIO ERIELDER CAMELO DOS SANTOS                  
0000010115300820110936A012645821199CARLOS ANDRE DA SILVA                               
0000010125300820110936A012645821199CARLOS ANDRE DA SILVA                               
0000010135300820110936A012656745197NAGELA CRISTINA COSTA ARAUJO                        
0000010145300820110936A012656745197NAGELA CRISTINA COSTA ARAUJO                        
0000010155300820110936A012717770196GLEISON PIO SOARES                                  
0000010165300820110936A012717770196GLEISON PIO SOARES                                  
0000010175300820110936A012799555197AGNALDO DOS SANTOS ROCHA                            
0000010185300820110936A012799555197AGNALDO DOS SANTOS ROCHA                            
0000010195300820110936A012952884198REGILANE PEREIRA ALMEIDA                            
0000010205300820110936A012952884198REGILANE PEREIRA ALMEIDA                            
0000010215300820110936A012977088190MARCELO ANDRADE GON큐LVES                           
0000010225300820110936A012977088190MARCELO ANDRADE GON큐LVES                           
0000010235300820110936A012991024196OSMILDO DA SILVA MONTEIRO                           
0000010245300820110936A010286361040FRANCISCO ROBLES VALVERDE                           
0000010255300820110936A010286361040FRANCISCO ROBLES VALVERDE                           
0000010265300820110936A010716149149FRANCISCO DE SOUZA FILHO                            
0000010275300820110936A010716149149FRANCISCO DE SOUZA FILHO                            
0000010285300820110936A010816456345FRANCISCO FIRMINO DA SILVA                          
0000010295300820110936A010816456345FRANCISCO FIRMINO DA SILVA                          
0000010305300820110936A012048762958JOSE IRAN PEREIRA SOUSA                             
0000010315300820110936A012048762958JOSE IRAN PEREIRA SOUSA                             
0000010325300820110936A012194959213WILLAMS MAIA MELO                                   
0000010335300820110936A012194959213WILLAMS MAIA MELO                                   
0000010345300820110936A012218054711NEHEMIAS DE OLIVEIRA RIBEIRO                        
0000010355300820110936A012218054711NEHEMIAS DE OLIVEIRA RIBEIRO                        
0000010365300820110936A012230353405CLOVIS ANTONIO LEMOS DA SILVA                       
0000010375300820110936A012230353405CLOVIS ANTONIO LEMOS DA SILVA                       
0000010385300820110936A012300498520FRANCISCO SANCHO DE ASSIS FILHO                     
0000010395300820110936A012300498520FRANCISCO SANCHO DE ASSIS FILHO                     
0000010405300820110936A012321230438MARCOS ANTONIO HARTER MOURA                         
0000010415300820110936A012321230438MARCOS ANTONIO HARTER MOURA                         
0000010425300820110936A012419181540SALVIANO MORAES NOGUEIRA                            
0000010435300820110936A012419181540SALVIANO MORAES NOGUEIRA                            
0000010445300820110936A012427760716FRANCISCO JOSE MACIEL                               
0000010455300820110936A012427760716FRANCISCO JOSE MACIEL                               
0000010465300820110936A012437126750RICARDO CESAR DO NASCIMENTO                         
0000010475300820110936A012437126750RICARDO CESAR DO NASCIMENTO                         
0000010485300820110936A012497773728LUIZ FERNANDO PEREIRA DA SILVA                      
0000010495300820110936A012497773728LUIZ FERNANDO PEREIRA DA SILVA                      
0000010505300820110936A012504537435PEDRO CIPRIANO JUNIOR                               
0000010515300820110936A012504537435PEDRO CIPRIANO JUNIOR                               
0000010525300820110936A012530583554FRANCISCO JOSE LOPES DOS SANTOS                     
0000010535300820110936A012530583554FRANCISCO JOSE LOPES DOS SANTOS                     
0000010545300820110936A012531248899FRANCISCO DAS CHAGAS RODRIGUES                      
0000010555300820110936A012531248899FRANCISCO DAS CHAGAS RODRIGUES                      
0000010565300820110936A012548615946CLAUDIO MARCOS ALVES DA SILVA                       
0000010575300820110936A012548615946CLAUDIO MARCOS ALVES DA SILVA                       
0000010585300820110936A012590808196ERMINIO JARDIM DE LIMA                              
0000010595300820110936A012590808196ERMINIO JARDIM DE LIMA                              
0000010605300820110936A012624497198ANTONIO ERIELDER CAMELO DOS SANTOS                  
0000010615300820110936A012624497198ANTONIO ERIELDER CAMELO DOS SANTOS                  
0000010625300820110936A012645821199CARLOS ANDRE DA SILVA                               
0000010635300820110936A012645821199CARLOS ANDRE DA SILVA                               
0000010645300820110936A012656745197NAGELA CRISTINA COSTA ARAUJO                        
0000010655300820110936A012656745197NAGELA CRISTINA COSTA ARAUJO                        
0000010665300820110936A012717770196GLEISON PIO SOARES                                  
0000010675300820110936A012717770196GLEISON PIO SOARES                                  
0000010685300820110936A012799555197AGNALDO DOS SANTOS ROCHA                            
0000010695300820110936A012799555197AGNALDO DOS SANTOS ROCHA                            
0000010705300820110936A012952884198REGILANE PEREIRA ALMEIDA                            
0000010715300820110936A012952884198REGILANE PEREIRA ALMEIDA                            
0000010725300820110936A012977088190MARCELO ANDRADE GON큐LVES                           
0000010735300820110936A012977088190MARCELO ANDRADE GON큐LVES                           
0000010745300820110936A012991024196OSMILDO DA SILVA MONTEIRO                           
0000010755300820110936A012991024196OSMILDO DA SILVA MONTEIRO                           
0000010765300820110936A013004430192ANTONIO CARLOS SILVA ALMEIDA                        
0000010775300820110936A013004430192ANTONIO CARLOS SILVA ALMEIDA                        
0000010785300820110936A013010380193LUIS CORREIA DE CASTRO                              
0000010795300820110936A013010380193LUIS CORREIA DE CASTRO                              
0000010805300820110936A013216779199JENILSON GOMES PEREIRA                              
0000010815300820110936A013216779199JENILSON GOMES PEREIRA                              
0000010825300820110936A013236179197VALDINE OLIVEIRA SANTOS                             
0000010835300820110936A013236179197VALDINE OLIVEIRA SANTOS                             
0000010845300820110936A013268280195RAIMUNDO NONATO DA SILVA                            
0000010855300820110936A013268280195RAIMUNDO NONATO DA SILVA                            
0000010865300820110936A013288406194LAELSON PESSOA DA COSTA                             
0000010875300820110936A013288406194LAELSON PESSOA DA COSTA                             
0000010885300820110936A013315490197FRANCISCO GILBERTO DA SILVA COSTA                   
0000010895300820110936A013315490197FRANCISCO GILBERTO DA SILVA COSTA                   
0000010905300820110936A013353397190TIAGO GALDINO DA SILVA                              
0000010915300820110937A013353397190TIAGO GALDINO DA SILVA                              
0000010925300820110937A013413989196JOAO CARLOS RIBEIRO SANTOS                          
0000010935300820110937A013413989196JOAO CARLOS RIBEIRO SANTOS                          
0000010945300820110937A013433937191JARLEY ALMEIDA SILVA                                
0000010955300820110937A013433937191JARLEY ALMEIDA SILVA                                
0000010965300820110937A013462637192FRANCISCO GERSON R DA ROCHA                         
0000010975300820110937A013462637192FRANCISCO GERSON R DA ROCHA                         
0000010985300820110937A013480732193JAMES GARCIA CARNEIRO DE FREITAS                    
0000010995300820110937A013480732193JAMES GARCIA CARNEIRO DE FREITAS                    
0000011005300820110937A013491568195JOAO BATISTA PEREIRA                                
0000011015300820110937A013491568195JOAO BATISTA PEREIRA                                
0000011025300820110937A013577429193JOSE ANTONIO DA SILVA NASCIMENTO                    
0000011035300820110937A013577429193JOSE ANTONIO DA SILVA NASCIMENTO                    
0000011045300820110937A013665127199ELSON DA SILVA GONDIM                               
0000011055300820110937A013665127199ELSON DA SILVA GONDIM                               
0000011065300820110937A013678336190JOABE SANTOS OLIVEIRA                               
0000011075300820110937A013678336190JOABE SANTOS OLIVEIRA                               
0000011085300820110937A013683257198FRANCISCO DE ASSIS DA SILVA PINHEIRO                
0000011095300820110937A013683257198FRANCISCO DE ASSIS DA SILVA PINHEIRO                
0000011105300820110937A013764659199CESAR ADRIANO DOS SANTOS                            
0000011115300820110937A013764659199CESAR ADRIANO DOS SANTOS                            
0000011125300820110937A013899079190PAULO MARTINS DE LIMA                               
0000011135300820110937A013899079190PAULO MARTINS DE LIMA                               
0000011145300820110937A013910174190ADELSON CAVALCANTE DOS SANTOS                       
0000011155300820110937A013910174190ADELSON CAVALCANTE DOS SANTOS                       
0000011165300820110937A013983816192JOSE JOCELINO SILVA SANTOS                          
0000011175300820110937A013983816192JOSE JOCELINO SILVA SANTOS                          
0000011185300820110937A016145750082BRUNO LIMA GOAINA                                   
0000011195300820110937A016145750082BRUNO LIMA GOAINA                                   
0000011205300820110937A016214144395JOSE CLAUDEIR COSTA FERREIRA                        
0000011215300820110937A016214144395JOSE CLAUDEIR COSTA FERREIRA                        
0000011225300820110937A016447134716LUIS PAULO DA SILVA MARTINS                         
0000011235300820110937A016447134716LUIS PAULO DA SILVA MARTINS                         
0000011245300820110937A017040389418JURACY JERONIMO DE ASSIS                            
0000011255300820110937A017040389418JURACY JERONIMO DE ASSIS                            
0000011265300820110937A020060760545NATALIA MARIA MENDES DA SILVA                       
0000011275300820110937A020060760545NATALIA MARIA MENDES DA SILVA                       
0000011285300820110937A020087660274TIAGO RAFAEL MARCOS DO VALE LIMA                    
0000011295300820110937A020087660274TIAGO RAFAEL MARCOS DO VALE LIMA                    
0000011305300820110937A020645337042LENILTON DA MOTA DE SOUSA FILHO                     
0000011315300820110937A020645337042LENILTON DA MOTA DE SOUSA FILHO                     
0000011325300820110937A020912706486ANDERSON LIMA MONTEIRO                              
0000011335300820110937A020912706486ANDERSON LIMA MONTEIRO                              
0000011345300820110937A020925069811LEANDRO SILVA COSTA                                 
0000011355300820110937A020925069811LEANDRO SILVA COSTA                                 
0000011365300820110937A020930157162JOAO MARCOS ALVES SILVA                             
0000011375300820110937A020930157162JOAO MARCOS ALVES SILVA                             
0000011383300820111433013678336190
0000011393300820111435012991024196
0000011403300820111606013764659199
0000011413300820111700013433937191
0000011423300820111700012218054711
0000011433300820111701016145750082
0000011443300820111701012427760716
0000011453300820111701013004430192
0000011463300820111701013491568195
0000011473300820111701012497773728
0000011483300820111702017040389418
0000011493300820111720013683257198
0000011503300820111759012230353405
0000011513300820111800010716149149
0000011523300820111800012194959213
0000011533300820111800012300498520
0000011543300820111800012717770196
0000011553300820111800013899079190
0000011563300820111800013462637192
0000011573300820111800013010380193
0000011583300820111800013983816192
0000011593300820111800013315490197
0000011603300820111800012799555197
0000011613300820111800020087660274
0000011623300820111800013216779199
0000011633300820111801016447134716
0000011643300820111801020925069811
0000011653300820111801013577429193
0000011663300820111801012048762958
0000011673300820111801012437126750
0000011683300820111801012419181540
0000011693300820111802013480732193
0000011703300820111802012977088190
0000011713300820111802013236179197
0000011723300820111802013910174190
0000011733300820111802012504537435
0000011743300820111802012645821199
0000011753300820111802013353397190
0000011763300820111808010816456345
0000011773300820111814013288406194
0000011783300820111817016214144395
0000011793300820111850012530583554
0000011803300820111850012530583554
0000011813310820110550013764659199
0000011823310820110550012991024196
0000011833310820110550013678336190
0000011843310820110630016214144395
0000011853310820110638013004430192
0000011863310820110646016145750082
0000011873310820110646013491568195
0000011883310820110647017040389418
0000011893310820110650013683257198
0000011903310820110654013433937191
0000011913310820110655013288406194
0000011923310820110657012218054711
0000011933310820110657012427760716
0000011943310820110708012497773728
0000011953310820110734012548615946
0000011963310820110735013315490197
0000011973310820110735013462637192
0000011983310820110735013983816192
0000011993310820110735013010380193
0000012003310820110735013577429193
0000012013310820110735010816456345
0000012023310820110735013216779199
0000012033310820110735013480732193
0000012043310820110736012230353405
0000012053310820110736013353397190
0000012063310820110736012645821199
0000012073310820110736012048762958
0000012083310820110736013899079190
0000012093310820110736012799555197
0000012103310820110737013910174190
0000012113310820110737020087660274
0000012123310820110737012419181540
0000012133310820110737010716149149
0000012143310820110737012977088190
0000012153310820110738013236179197
0000012163310820110738012530583554
0000012173310820110738012656745197
0000012183310820110741016447134716
0000012193310820110742020925069811
0000012203310820110742012437126750
0000012213310820110742012504537435
0000012223310820110745012194959213
0000012233310820110745012952884198
0000012243310820111420013678336190
0000012253310820111420012991024196
0000012263310820111436013764659199
0000012273310820111700012218054711
0000012283310820111700017040389418
0000012293310820111701012427760716
0000012303310820111701016214144395
0000012313310820111702012497773728
0000012323310820111702013004430192
0000012333310820111702013491568195
0000012343310820111702013433937191
0000012353310820111702016145750082
0000012363310820111704013683257198
0000012373310820111704013288406194
0000012383310820111754013899079190
0000012393310820111754012799555197
0000012403310820111804012048762958
0000012413310820111824012530583554
0000012423310820111853013480732193
0000012433310820111853013010380193
0000012443310820111853013462637192
0000012453310820111855012194959213
0000012463310820111855010716149149
0000012473310820111855013216779199
0000012483310820111859020925069811
0000012493310820111859013910174190
0000012503310820111859012548615946
0000012513310820111859013983816192
0000012523310820111859012437126750
0000012533310820111900020087660274
0000012543310820111900012230353405
0000012553310820111900016447134716
0000012563310820111900013353397190
0000012573310820111900010816456345
0000012583310820111901012977088190
0000012593310820111902013236179197
0000012603310820111902012504537435
0000012613310820111903012645821199
0000012623310820111903013315490197
0000012633310820111904013577429193
0000012643310820111907012419181540
0000012653010920110553013764659199
0000012663010920110553012991024196
0000012673010920110553013678336190
0000012683010920110629016214144395
0000012693010920110633013004430192
0000012703010920110636016145750082
0000012713010920110637013491568195
0000012723010920110637012497773728
0000012733010920110638017040389418
0000012743010920110647012218054711
0000012753010920110654013433937191
0000012763010920110655012427760716
0000012773010920110655013288406194
0000012783010920110656013683257198
0000012793010920110733013983816192
0000012803010920110734013315490197
0000012813010920110734013577429193
0000012823010920110734013353397190
0000012833010920110734013480732193
0000012843010920110734013216779199
0000012853010920110734010816456345
0000012863010920110734012645821199
0000012873010920110734012548615946
0000012883010920110734013462637192
0000012893010920110735013010380193
0000012903010920110735013899079190
0000012913010920110738012799555197
0000012923010920110739012048762958
0000012933010920110739013910174190
0000012943010920110739012419181540
0000012953010920110739010716149149
0000012963010920110739012717770196
0000012973010920110739012504537435
0000012983010920110739013236179197
0000012993010920110739012656745197
0000013003010920110740012531248899
0000013013010920110740020087660274
0000013023010920110740012437126750
0000013033010920110741012530583554
0000013043010920110742012194959213
0000013053010920110753020925069811
0000013063010920110753016447134716
0000013073010920111001013764659199
0000013083010920111050012977088190
0000013093010920111110012952884198
0000013103010920111245012048762958
0000013113010920111335013413989196
0000013123010920111336020930157162
0000013133010920111336013268280195
0000013143010920111423013678336190
0000013153010920111442012991024196
0000013163010920111703013004430192
0000013173010920111703013491568195
0000013183010920111704012497773728
0000013193010920111709017040389418
0000013203010920111710013683257198
0000013213010920111733016214144395
0000013223010920111800012194959213
0000013233010920111800013899079190
0000013243010920111800012624497198
0000013253010920111800010716149149
0000013263010920111800012717770196
0000013273010920111800013480732193
0000013283010920111800016447134716
0000013293010920111800012799555197
0000013303010920111800013462637192
0000013313010920111800013010380193
0000013323010920111800013216779199
0000013333010920111801012437126750
0000013343010920111801012419181540
0000013353010920111801013983816192
0000013363010920111801020087660274
0000013373010920111801020925069811
0000013383010920111801013353397190
0000013393010920111801012531248899
0000013403010920111801012504537435
0000013413010920111801013315490197
0000013423010920111802013910174190
0000013433010920111802012977088190
0000013443010920111803012656745197
0000013453010920111804013577429193
0000013463010920111805012548615946
0000013473010920111805012645821199
0000013483010920111805010816456345
0000013493010920111805013236179197
0000013503010920111856012530583554
0000013513010920111907012218054711
0000013523010920111907013433937191
0000013533010920111907013288406194
0000013543010920111908016145750082
0000013553010920111912012427760716
0000013563010920112155020930157162
0000013573010920112156013413989196
0000013583010920112200013268280195
0000013593020920110555013764659199
0000013603020920110555013678336190
0000013613020920110555012991024196
0000013623020920110626016214144395
0000013633020920110632013004430192
0000013643020920110641017040389418
0000013653020920110641013491568195
0000013663020920110642016145750082
0000013673020920110645012497773728
0000013683020920110649013683257198
0000013693020920110653012427760716
0000013703020920110654012218054711
0000013713020920110654013288406194
0000013723020920110659013433937191
0000013733020920110734012799555197
0000013743020920110734013899079190
0000013753020920110735013315490197
0000013763020920110735013983816192
0000013773020920110735013577429193
0000013783020920110735013010380193
0000013793020920110736013480732193
0000013803020920110736012548615946
0000013813020920110736013216779199
0000013823020920110736012645821199
0000013833020920110736012230353405
0000013843020920110736010816456345
0000013853020920110743013462637192
0000013863020920110743013910174190
0000013873020920110743012048762958
0000013883020920110743012419181540
0000013893020920110743010716149149
0000013903020920110743012624497198
0000013913020920110744012717770196
0000013923020920110744012530583554
0000013933020920110744012531248899
0000013943020920110744020087660274
0000013953020920110747016447134716
0000013963020920110747020925069811
0000013973020920110747012952884198
0000013983020920110748012194959213
0000013993020920110750012656745197
0000014003020920110751012437126750
0000014013020920110806012977088190
0000014023020920111329013268280195
0000014033020920111330020930157162
0000014043020920111335013413989196
0000014053020920111421013678336190
0000014063020920111433012991024196
0000014073020920111441013764659199
0000014083020920111602016214144395
0000014093020920111602017040389418
0000014103020920111604016145750082
0000014113020920111604012427760716
0000014123020920111606012497773728
0000014133020920111609013004430192
0000014143020920111612013491568195
0000014153020920111615013433937191
0000014163020920111617012218054711
0000014173020920111630013288406194
0000014183020920111702013462637192
0000014193020920111702013010380193
0000014203020920111705013683257198
0000014213020920111814012799555197
0000014223020920111815013899079190
0000014233020920111815013216779199
0000014243020920111823012531248899
0000014253020920111823010716149149
0000014263020920111826012624497198
0000014273020920111826012194959213
0000014283020920111826012437126750
0000014293020920111826013480732193
0000014303020920111827020087660274
0000014313020920111827020925069811
0000014323020920111829012717770196
0000014333020920111831016447134716
0000014343020920111833013983816192
0000014353020920111833013315490197
0000014363020920111835012230353405
0000014373020920111835012548615946
0000014383020920111835013910174190
0000014393020920111835013577429193
0000014403020920111836010816456345
0000014413020920111840012048762958
0000014423020920111842012645821199
0000014433020920111842012419181540
0000014443020920111939012530583554
0000014453020920112134020930157162
0000014463020920112141013268280195
0000014473020920112141013413989196
0000014483030920110554013764659199
0000014493030920110555012991024196
0000014503030920110558013678336190
0000014513030920110644012530583554
0000014523030920110854012624497198
0000014533030920111000013764659199
0000014543030920111005013678336190
0000014553030920111006012991024196
0000014563030920111726020930157162
0000014573030920111726013413989196
0000014583030920111734013268280195
0000014593030920111900012530583554
0000014603030920112023020930157162
0000014613030920112023013413989196
0000014623030920112023013268280195
0000014633040920110537012530583554
0000014643050920110550012991024196
0000014653050920110551013764659199
0000014663050920110557013678336190
0000014673050920110626013491568195
0000014683050920110630016214144395
0000014693050920110635013004430192
0000014703050920110635017040389418
0000014713050920110646016145750082
0000014723050920110649012218054711
0000014733050920110652013433937191
0000014743050920110652012427760716
0000014753050920110656013683257198
0000014763050920110701013288406194
0000014773050920110709012497773728
0000014783050920110737012799555197
0000014793050920110737012300498520
0000014803050920110737012419181540
0000014813050920110737013910174190
0000014823050920110737012048762958
0000014833050920110737012717770196
0000014843050920110737020087660274
0000014853050920110737013236179197
0000014863050920110738012656745197
0000014873050920110738012548615946
0000014883050920110738012504537435
0000014893050920110738012194959213
0000014903050920110738012230353405
0000014913050920110738010716149149
0000014923050920110738012437126750
0000014933050920110738013983816192
0000014943050920110739013315490197
0000014953050920110739013462637192
0000014963050920110739013577429193
0000014973050920110739013010380193
0000014983050920110739013353397190
0000014993050920110739013480732193
0000015003050920110739010816456345
0000015013050920110739012645821199
0000015023050920110740013216779199
0000015033050920110744013899079190
0000015043050920110746016447134716
0000015053050920110746020925069811
0000015063050920110750012977088190
0000015073050920110848012952884198
0000015083050920111055013480732193
0000015093050920111328013268280195
0000015103050920111330020930157162
0000015113050920111331013413989196
0000015123050920111449013764659199
0000015133050920111501013678336190
0000015143050920111501012991024196
0000015153050920111700012218054711
0000015163050920111700013433937191
0000015173050920111701017040389418
0000015183050920111701012427760716
0000015193050920111703012497773728
0000015203050920111704013004430192
0000015213050920111704013491568195
0000015223050920111704016145750082
0000015233050920111705016214144395
0000015243050920111705013683257198
0000015253050920111748013288406194
0000015263050920111757013236179197
0000015273050920111758012717770196
0000015283050920111800010716149149
0000015293050920111800013216779199
0000015303050920111800012419181540
0000015313050920111800012300498520
0000015323050920111800013010380193
0000015333050920111800013462637192
0000015343050920111800013899079190
0000015353050920111800012799555197
0000015363050920111800012194959213
0000015373050920111800012437126750
0000015383050920111801020087660274
0000015393050920111801020925069811
0000015403050920111801013577429193
0000015413050920111801016447134716
0000015423050920111801013910174190
0000015433050920111801013983816192
0000015443050920111801013315490197
0000015453050920111801012977088190
0000015463050920111801013353397190
0000015473050920111801012504537435
0000015483050920111802012548615946
0000015493050920111802012645821199
0000015503050920111802012048762958
0000015513050920111802012230353405
0000015523050920111802010816456345
0000015533050920112003012530583554
0000015543050920112005013413989196
0000015553050920112007012531248899
0000015563050920112155020930157162
0000015573050920112200013268280195
0000015583060920110202012531248899
0000015593060920110541013678336190
0000015603060920110551012991024196
0000015613060920110555013764659199
0000015623060920110622016214144395
0000015633060920110631012497773728
0000015643060920110631013004430192
0000015653060920110632013491568195
0000015663060920110647017040389418
0000015673060920110650012218054711
0000015683060920110655012427760716
0000015693060920110655013433937191
0000015703060920110657013683257198
0000015713060920110732013315490197
0000015723060920110732012230353405
0000015733060920110733013983816192
0000015743060920110733013577429193
0000015753060920110733013353397190
0000015763060920110733013480732193
0000015773060920110733013462637192
0000015783060920110733013010380193
0000015793060920110733012548615946
0000015803060920110733013216779199
0000015813060920110733012645821199
0000015823060920110734010816456345
0000015833060920110741013236179197
0000015843060920110742012799555197
0000015853060920110742012300498520
0000015863060920110743012048762958
0000015873060920110743012504537435
0000015883060920110743013910174190
0000015893060920110743020087660274
0000015903060920110743012717770196
0000015913060920110743010716149149
0000015923060920110743013899079190
0000015933060920110745012952884198
0000015943060920110748020925069811
0000015953060920110748016447134716
0000015963060920110748012437126750
0000015973060920110748012530583554
0000015983060920110753012194959213
0000015993060920111252012656745197
0000016003060920111330013268280195
0000016013060920111333013413989196
0000016023060920111336020930157162
0000016033060920111431012991024196
0000016043060920111601013678336190
0000016053060920111608013764659199
0000016063060920111700013433937191
0000016073060920111700012218054711
0000016083060920111700017040389418
0000016093060920111700012427760716
0000016103060920111702012497773728
0000016113060920111703013004430192
0000016123060920111703016214144395
0000016133060920111703013491568195
0000016143060920111718013683257198
0000016153060920111758013236179197
0000016163060920111800012717770196
0000016173060920111800013315490197
0000016183060920111800013983816192
0000016193060920111800013010380193
0000016203060920111800013577429193
0000016213060920111800010716149149
0000016223060920111800013899079190
0000016233060920111800012048762958
0000016243060920111800013462637192
0000016253060920111800012645821199
0000016263060920111800012300498520
0000016273060920111801012194959213
0000016283060920111801012437126750
0000016293060920111801012504537435
0000016303060920111801012548615946
0000016313060920111801012799555197
0000016323060920111801013216779199
0000016333060920111801020087660274
0000016343060920111801013480732193
0000016353060920111802010816456345
0000016363060920111802013910174190
0000016373060920111802016447134716
0000016383060920111802013353397190
0000016393060920111806012230353405
0000016403060920111809020925069811
0000016413060920111949012530583554
0000016423060920112144020930157162
0000016433060920112150013268280195
0000016443060920112150013413989196
0000016453070920110537012530583554
0000016463070920111909012300498520
0000016473080920110551013678336190
0000016483080920110551012991024196
0000016493080920110552013764659199
0000016503080920110629013004430192
0000016513080920110635016214144395
0000016523080920110641013491568195
0000016533080920110642017040389418
0000016543080920110645012218054711
0000016553080920110646016145750082
0000016563080920110647013288406194
0000016573080920110652013683257198
0000016583080920110652013433937191
0000016593080920110653012427760716
0000016603080920110709012497773728
0000016613080920110734012230353405
0000016623080920110734013983816192
0000016633080920110734010816456345
0000016643080920110734013577429193
0000016653080920110734013353397190
0000016663080920110734012548615946
0000016673080920110735012645821199
0000016683080920110735013462637192
0000016693080920110735013315490197
0000016703080920110735013010380193
0000016713080920110735012300498520
0000016723080920110736012048762958
0000016733080920110737012799555197
0000016743080920110737010716149149
0000016753080920110738012952884198
0000016763080920110738012977088190
0000016773080920110738012194959213
0000016783080920110738013910174190
0000016793080920110738012437126750
0000016803080920110738013899079190
0000016813080920110738012624497198
0000016823080920110739012504537435
0000016833080920110739013216779199
0000016843080920110750016447134716
0000016853080920110750020925069811
0000016863080920110752013480732193
0000016873080920110758013236179197
0000016883080920110800012656745197
0000016893080920111331013268280195
0000016903080920111333013413989196
0000016913080920111335020930157162
0000016923080920111431013678336190
0000016933080920111432012991024196
0000016943080920111434013764659199
0000016953080920111701013433937191
0000016963080920111702017040389418
0000016973080920111702013288406194
0000016983080920111703012218054711
0000016993080920111703016145750082
0000017003080920111703012497773728
0000017013080920111703013004430192
0000017023080920111704016214144395
0000017033080920111704012427760716
0000017043080920111704013683257198
0000017053080920111708013491568195
0000017063080920111857012656745197
0000017073080920111912013216779199
0000017083080920111912013462637192
0000017093080920111912013480732193
0000017103080920111913013010380193
0000017113080920111925010816456345
0000017123080920111926012548615946
0000017133080920111928012437126750
0000017143080920111929012799555197
0000017153080920111930010716149149
0000017163080920111932013899079190
0000017173080920111933013983816192
0000017183080920111934020925069811
0000017193080920111935012624497198
0000017203080920111935012194959213
0000017213080920111935016447134716
0000017223080920111935013315490197
0000017233080920111938012977088190
0000017243080920111938012048762958
0000017253080920111939013577429193
0000017263080920111939012645821199
0000017273080920111939013353397190
0000017283080920111939012504537435
0000017293080920111940013910174190
0000017303080920111941012230353405
0000017313080920111952012300498520
0000017323080920112003012531248899
0000017333080920112200020930157162
0000017343080920112201013413989196
0000017353080920112201013268280195
0000017363090920110413012531248899
0000017373090920110551012991024196
0000017383090920110553013764659199
0000017393090920110558013678336190
0000017403090920110630016214144395
0000017413090920110630013491568195
0000017423090920110631017040389418
0000017433090920110639012497773728
0000017443090920110640013004430192
0000017453090920110647013433937191
0000017463090920110647016145750082
0000017473090920110650012427760716
0000017483090920110651012218054711
0000017493090920110653013683257198
0000017503090920110656013288406194
0000017513090920110733012799555197
0000017523090920110736016447134716
0000017533090920110736013983816192
0000017543090920110736013315490197
0000017553090920110736012230353405
0000017563090920110736013577429193
0000017573090920110736013010380193
0000017583090920110736013216779199
0000017593090920110736013353397190
0000017603090920110736013480732193
0000017613090920110736020925069811
0000017623090920110737012645821199
0000017633090920110737010816456345
0000017643090920110737012548615946
0000017653090920110743013462637192
0000017663090920110746012300498520
0000017673090920110748012717770196
0000017683090920110748013899079190
0000017693090920110748013910174190
0000017703090920110748012419181540
0000017713090920110748012504537435
0000017723090920110749012048762958
0000017733090920110749012437126750
0000017743090920110749010716149149
0000017753090920110749012656745197
0000017763090920110749012952884198
0000017773090920110750020087660274
0000017783090920110750012194959213
0000017793090920110800012977088190
0000017803090920110805013236179197
0000017813090920110833012624497198
0000017823090920111101012717770196
0000017833090920111206012048762958
0000017843090920111237012548615946
0000017853090920111238010716149149
0000017863090920111333013268280195
0000017873090920111333020930157162
0000017883090920111334013413989196
0000017893090920111427013678336190
0000017903090920111442013764659199
0000017913090920111524013236179197
0000017923090920111600013433937191
0000017933090920111600013899079190
0000017943090920111600016447134716
0000017953090920111600013353397190
0000017963090920111600020087660274
0000017973090920111600013462637192
0000017983090920111600013010380193
0000017993090920111600013004430192
0000018003090920111600012977088190
0000018013090920111600012437126750
0000018023090920111600012427760716
0000018033090920111600016145750082
0000018043090920111601017040389418
0000018053090920111601013491568195
0000018063090920111601012419181540
0000018073090920111601012645821199
0000018083090920111601013683257198
0000018093090920111601013683257198
0000018103090920111603012497773728
0000018113090920111603013910174190
0000018123090920111603013983816192
0000018133090920111603012504537435
0000018143090920111603013315490197
0000018153090920111604012624497198
0000018163090920111605012799555197
0000018173090920111605013480732193
0000018183090920111605020925069811
0000018193090920111605013577429193
0000018203090920111606013216779199
0000018213090920111608013288406194
0000018223090920111608012230353405
0000018233090920111608016214144395
0000018243090920111609012194959213
0000018253090920111612010816456345
0000018263090920111615012952884198
0000018273090920111929012300498520
0000018283090920112143020930157162
0000018293090920112143013268280195
0000018303090920112143013413989196
0000018313100920110553012991024196
0000018323100920110553013764659199
0000018333100920110558013678336190
0000018343100920110605012300498520
0000018353100920110826012624497198
0000018363100920111006012991024196
0000018373100920111006013678336190
0000018383100920111007013764659199
0000018393100920111325020930157162
0000018403100920111332013268280195
0000018413100920111340013413989196
0000018423100920111533012624497198
0000018433100920111903020930157162
0000018443100920111903013413989196
0000018453100920111903013268280195
0000018463100920111927012300498520
0000018473110920110706012300498520
0000018483110920111530012624497198
0000018493110920111916012300498520
0000018503120920110549012991024196
0000018513120920110557013764659199
0000018523120920110603013678336190
0000018533120920110630013004430192
0000018543120920110632013491568195
0000018553120920110642017040389418
0000018563120920110651013683257198
0000018573120920110655013433937191
0000018583120920110655012427760716
0000018593120920110655016145750082
0000018603120920110656012218054711
0000018613120920110656013288406194
0000018623120920110659012497773728
0000018633120920110729012952884198
0000018643120920110734013462637192
0000018653120920110736012717770196
0000018663120920110736012300498520
0000018673120920110736012048762958
0000018683120920110736012419181540
0000018693120920110736013236179197
0000018703120920110736010716149149
0000018713120920110737012530583554
0000018723120920110737012504537435
0000018733120920110737012437126750
0000018743120920110737020087660274
0000018753120920110737012531248899
0000018763120920110738012656745197
0000018773120920110739012977088190
0000018783120920110739012194959213
0000018793120920110739013315490197
0000018803120920110740013983816192
0000018813120920110740012230353405
0000018823120920110740013216779199
0000018833120920110740013353397190
0000018843120920110740013480732193
0000018853120920110740013577429193
0000018863120920110740012548615946
0000018873120920110740012645821199
0000018883120920110741013899079190
0000018893120920110741010816456345
0000018903120920110741013010380193
0000018913120920110746016447134716
0000018923120920110746020925069811
0000018933120920110749012799555197
0000018943120920111335013413989196
0000018953120920111335013268280195
0000018963120920111421013678336190
0000018973120920111424020930157162
0000018983120920111445013764659199
0000018993120920111447012991024196
0000019003120920111658013433937191
0000019013120920111700012427760716
0000019023120920111700012218054711
0000019033120920111701012497773728
0000019043120920111701017040389418
0000019053120920111702016145750082
0000019063120920111702013004430192
0000019073120920111702013491568195
0000019083120920111702013683257198
0000019093120920111702013683257198
0000019103120920111740013288406194
0000019113120920111800012548615946
0000019123120920111800012230353405
0000019133120920111800012531248899
0000019143120920111800012194959213
0000019153120920111800012530583554
0000019163120920111800013899079190
0000019173120920111800010716149149
0000019183120920111800012717770196
0000019193120920111801013010380193
0000019203120920111801012799555197
0000019213120920111801013462637192
0000019223120920111801016447134716
0000019233120920111801013577429193
0000019243120920111801020925069811
0000019253120920111801013315490197
0000019263120920111801013983816192
0000019273120920111801013216779199
0000019283120920111801012419181540
0000019293120920111801010816456345
0000019303120920111801012048762958
0000019313120920111802012437126750
0000019323120920111802013236179197
0000019333120920111802012504537435
0000019343120920111802012977088190
0000019353120920111802013480732193
0000019363120920111802020087660274
0000019373120920111802013353397190
0000019383120920111802012645821199
0000019393120920111940012300498520
0000019403120920112200020930157162
0000019413120920112200013413989196
0000019423120920112200013268280195
0000019433130920110553012991024196
0000019443130920110553013678336190
0000019453130920110557013764659199
0000019463130920110626016214144395
0000019473130920110630013491568195
0000019483130920110631017040389418
0000019493130920110636013004430192
0000019503130920110644012218054711
0000019513130920110654012427760716
0000019523130920110657013683257198
0000019533130920110657013288406194
0000019543130920110658016145750082
0000019553130920110735012230353405
0000019563130920110735013983816192
0000019573130920110735013216779199
0000019583130920110735013315490197
0000019593130920110735013577429193
0000019603130920110735013462637192
0000019613130920110735013010380193
0000019623130920110735013353397190
0000019633130920110735012548615946
0000019643130920110736013480732193
0000019653130920110736012645821199
0000019663130920110736010816456345
0000019673130920110742020925069811
0000019683130920110743016447134716
0000019693130920110752012300498520
0000019703130920110754012799555197
0000019713130920110754012048762958
0000019723130920110755012717770196
0000019733130920110755013910174190
0000019743130920110755012419181540
0000019753130920110755012504537435
0000019763130920110755010716149149
0000019773130920110756020087660274
0000019783130920110756012656745197
0000019793130920110756012952884198
0000019803130920110756012530583554
0000019813130920110756012437126750
0000019823130920110756012977088190
0000019833130920110757013236179197
0000019843130920110757012194959213
0000019853130920110803012531248899
0000019863130920111334013268280195
0000019873130920111334020930157162
0000019883130920111335013413989196
0000019893130920111420013678336190
0000019903130920111420012991024196
0000019913130920111434013764659199
0000019923130920111506012531248899
0000019933130920111703017040389418
0000019943130920111703013288406194
0000019953130920111704012427760716
0000019963130920111704013004430192
0000019973130920111704016214144395
0000019983130920111705013491568195
0000019993130920111708013683257198
0000020003130920111749012218054711
0000020013130920111800012717770196
0000020023130920111800010716149149
0000020033130920111800012194959213
0000020043130920111800012530583554
0000020053130920111800013315490197
0000020063130920111800013983816192
0000020073130920111800013236179197
0000020083130920111800012419181540
0000020093130920111800013910174190
0000020103130920111800012977088190
0000020113130920111800012799555197
0000020123130920111800013216779199
0000020133130920111800012548615946
0000020143130920111801013577429193
0000020153130920111801013010380193
0000020163130920111801013462637192
0000020173130920111801016447134716
0000020183130920111801013480732193
0000020193130920111801013353397190
0000020203130920111801020925069811
0000020213130920111801012504537435
0000020223130920111801012048762958
0000020233130920111801012437126750
0000020243130920111801020087660274
0000020253130920111802012645821199
0000020263130920111802012230353405
0000020273130920111803010816456345
0000020283130920111935012300498520
0000020293130920112109020930157162
0000020303130920112109013413989196
0000020313130920112109013268280195
0000020323140920110554013678336190
0000020333140920110555012991024196
0000020343140920110555013764659199
0000020353140920110627016214144395
0000020363140920110630013491568195
0000020373140920110640013004430192
0000020383140920110640017040389418
0000020393140920110643012497773728
0000020403140920110649013433937191
0000020413140920110651012218054711
0000020423140920110655016145750082
0000020433140920110655012427760716
0000020443140920110658013288406194
0000020453140920110659013683257198
0000020463140920110736013983816192
0000020473140920110736013577429193
0000020483140920110736013315490197
0000020493140920110736013216779199
0000020503140920110736012230353405
0000020513140920110736013899079190
0000020523140920110736013462637192
0000020533140920110736013353397190
0000020543140920110737013010380193
0000020553140920110737012548615946
0000020563140920110737013480732193
0000020573140920110737010816456345
0000020583140920110737016447134716
0000020593140920110737012645821199
0000020603140920110742020925069811
0000020613140920110744012300498520
0000020623140920110746012799555197
0000020633140920110747012717770196
0000020643140920110747012048762958
0000020653140920110747012419181540
0000020663140920110748012952884198
0000020673140920110748020087660274
0000020683140920110748012437126750
0000020693140920110748013910174190
0000020703140920110748012977088190
0000020713140920110748012531248899
0000020723140920110748012504537435
0000020733140920110748013236179197
0000020743140920110748012656745197
0000020753140920110749012194959213
0000020763140920110749012624497198
0000020773140920110749012530583554
0000020783140920111332020930157162
0000020793140920111332013268280195
0000020803140920111334013413989196
0000020813140920111420013678336190
